:10000000000004205D020000B5020000B7020000FD
:10001000B9020000BB020000BD02000000000000A9
:10002000000000000000000000000000BF0200000F
:10003000C102000000000000C3020000C502000071
:10004000C9020000CB02000079140000CD140000AA
:10005000D1020000D3020000D5020000D702000048
:10006000D9020000DB020000DD020000DF02000018
:10007000E1020000E3020000E5020000E7020000E8
:10008000E9020000EB020000ED020000EF020000B8
:10009000F1020000F3020000F5020000F702000088
:1000A000F9020000FB020000FD020000FF02000058
:1000B0000103000003030000C7020000C7020000A4
:1000C0000503000007030000090300000B03000004
:1000D0000D0300000F0300001103000013030000D4
:1000E000150300001703000019030000C7020000F9
:1000F000C70200001D030000C70200001B03000030
:10010000354936480A1A02D0072291438D463449B0
:1001100034480A1A06D00722914381F30988022243
:1001200082F3148830483149314A00F044F83148AC
:100130003149324A00F03FF831483249324A00F042
:100140003AF832483249334A00F035F832483349F8
:10015000334A00F030F833483349344A00F02BF882
:1001600033483449344A00F026F8344834490022F0
:1001700000F02CF833483449002200F027F83348C7
:100180003349091A082902DB002202604160314A22
:1001900090471F481F49884205D00268043003B4C5
:1001A000904703BCF7E700208646EC46002000217C
:1001B000294A9047FEE7884207D0521A05D00378B3
:1001C00001300B700131013AF9D17047884202D0F9
:1001D00002700130FAE770470000042000E00320BD
:1001E0000000042000000420DC3000001800002083
:1001F000400000202003000020030000FE2A000031
:10020000DC3000001800002018000020602B0000E7
:10021000602B0000602B0000602B0000602B0000B2
:10022000602B0000602B0000602B0000DA30000023
:100230000431000040000020400000204000002069
:10024000700800207008002070080020700800204E
:100250007028002081020000D51D00000F484FF0DB
:100260000701884385460E4880470E48016841F4DF
:1002700070010160BFF34F8FBFF36F8FFFF740BF77
:1002800009480A490A4A884207D0521A05D0037819
:1002900001300B700131013AF9D1704700000420A0
:1002A0006D20000088ED00E0482B000000000020D9
:1002B00018000020FEE7FEE7FEE7FEE7FEE7FEE7A8
:1002C000FEE7FEE7FEE7FEE7FEE7FEE7FEE7FEE706
:1002D000FEE7FEE7FEE7FEE7FEE7FEE7FEE7FEE7F6
:1002E000FEE7FEE7FEE7FEE7FEE7FEE7FEE7FEE7E6
:1002F000FEE7FEE7FEE7FEE7FEE7FEE7FEE7FEE7D6
:10030000FEE7FEE7FEE7FEE7FEE7FEE7FEE7FEE7C5
:10031000FEE7FEE7FEE7FEE7FEE7FEE7FEE700BFDB
:100320007047000007B5044B0093044A402300F0D7
:1003300032F803B05DF804FB4103000041000020E7
:100340002DE9F84388461446B2B10F4B0F4E0325F2
:10035000002743F00109224608EB0701002001F0C5
:1003600045FE0744241A48B933782BB14FF47A403C
:10037000C847013D02D13570BDE8F88301233370D1
:10038000002CE8D1F8E700BF602B000040000020FF
:10039000704701F05BBEF0B595B01D4616460846A5
:1003A0000C4600F04CFF1A9B0D93CDE90865002523
:1003B0002B46082205A920460A958DF82C500C954D
:1003C00000F078FF079B0293069B03939DF814307F
:1003D0008DF8115003F00302012A1DD1BDF814203D
:1003E000059DC3F3C203C2F383168DF81030B2002B
:1003F00008230EA9204600F05DFFC5F3952508AB44
:100400000093324602AB0EA9284600F061FB20465D
:1004100000F019FF15B0F0BD022AF8D1BDF8165052
:10042000C3F3C203C5F389158DF810300827082DD2
:100430002E4628BF08263B4632460EA9204600F02D
:1004400039FFAD1B08AB02AA31460EA8374400F0B5
:10045000A3FB002DEBD1DAE710B5054CFFF799FFB0
:100460000421204600F0A2FA0123637210BD00BFF0
:1004700018000020037813F0030F03F0040202D0E9
:1004800012B910467047B2B103F00303012B03D039
:10049000022B09D0012070470A6800880232C0F39D
:1004A000831002440A60F5E70B684288023303EBCD
:1004B00092130B60EEE70B684288013303EB921353
:1004C0000288F4E72DE9F04FDFF824A10F4685B04C
:1004D0000446861C0020154600F00CFCDAF80010DB
:1004E0003960DAE90132134401335B1A0AF21C471E
:1004F0000AF583690AF21448B3421BD30020002D89
:1005000072D004F00F039B0143F0050363F30F0067
:10051000DAF80020DAF808301340033332444AF89E
:1005200023000020CAF8002000F0E6FB012005B0FF
:10053000BDE8F08F0121384600F003FC484600F08A
:1005400018FC404600F015FCDAF80400DAF808B0B0
:10055000009000EA0B0003300AEB80006946FFF7C9
:1005600089FF009B50BB0BEA03020AEB820203F1F6
:10057000020CD2680192013303EA0B0B0AEB8B0BDE
:1005800002F00302012ADBF80C10CDF800C023D0E2
:10059000022A16D08346404600F0EEFB10B1009BC5
:1005A000CAF804305946384600F0CBFBDAE901239B
:1005B0001344DAF8002001339B1A9DE70BEA03008D
:1005C000C9E7BDF80630C3F3891303334FEA114B73
:1005D0000CEB93030093DEE7BDF80430C3F3831301
:1005E0004FEA114B6344F5E7A40544F006008FE79A
:1005F0005401002008B50F4B0F48FF229A600022DB
:10060000C3F81824C3E90022C3F81424012283F894
:10061000202400F0CDFD38B9084A094B09499B1A3E
:10062000DB0802469A4200D108BD21F8222001329F
:10063000F8E700BF54010020302B0000002B000021
:10064000302B00000000002030B50A4C71B10A4A7E
:100650000A49121BD20800239A4201D1002030BD62
:1006600031F82350854202D00133F5E7034654F8B0
:100670003300F4E7002B0000302B000002000020C4
:10068000094B013903EBC000032909D8DFE801F069
:100690000A020406042070470079704740797047C9
:1006A0000020704702207047002B0000034BD3E965
:1006B0000030C31A58425841704700BF540100200F
:1006C0002DE9F04385B0FFF7F1FF0646002840F022
:1006D000FA807E4CC4F81804BFF34F8F6368A56896
:1006E00000932B40033304EB83006946FFF7C2FEFF
:1006F000009A0746002865D105EA020304EB83034C
:10070000911C0132DB6801932A4004EB820203F062
:100710000303D2680091022B02926BD1BDF8063020
:100720006B48C3F38918B8F1500FC14628BF4FF08A
:10073000500909F1080169F38F13C1F30901ADF8FC
:10074000063000F04DFD0646002800F0AA8000F0BB
:1007500076FD3B46082201A9304600F082FD009953
:1007600025EA01020132B9EB820F4FEA82033AD93E
:100770005FFA89F99BB32940DDB2A9EB0509033182
:100780005FFA89F7A946534D04EB810108234A46D5
:10079000304600F066FD45B109F108095FFA89F3BA
:1007A0003A462946304600F05CFD009B08F10308FC
:1007B00003EB98030093D4F81834002B4FD1D4F8EE
:1007C00010545DE02368934204D86360304605B05E
:1007D000BDE8F0832A40033204EB820085E73D49FF
:1007E0001D461F46D2E72940033108234A4604EB41
:1007F0008101D7E7012B54D1BDF804303448C3F34D
:100800008311062928BF062161F38913023101F003
:100810000F018900ADF8043000F0E2FC0646002824
:100820003FD000F00CFD3B46082201A9304600F005
:1008300018FDBDF80420C2F38312BB00974203F1F8
:100840000803B8D200994A1C29400331009204EBF6
:1008500081010422304600F004FD0137E9E730460B
:1008600000F0F1FCFFF722FF80F00100C6B2ADE717
:100870006B7A23B12B6831461B68284698476D6810
:10088000002DF5D1304600F0DEFC284600F032FAAB
:10089000D4F818340BB9009B6360002000F02CFAE8
:1008A000E0E7D4F8104444B90B4B0C491888000415
:1008B00040F0020000F060F8D4E7236820469B680F
:1008C00098476468EFE7002680E700BF54010020E6
:1008D000302B00006001002010000020742B00006D
:1008E0002DE9F74F224E04460F46924601A90122F8
:1008F0001846D6F808909B46FFF7E4FD20B3019D0B
:100900004FF00008AA1CD84508EB020126D119486F
:10091000002100F0F3F980F31000000440EA1440D5
:10092000E4006B1C04F0380403EA090305EA090536
:1009300044F0010406EB8303033544EA881444EAD7
:100940008724D86046F8254096F820341BB1FFF77D
:10095000B7FE0028FBD103B0BDE8F08F09EA010122
:1009600006EB81015AF82830CB6008F10108CAE78C
:10097000540100207005002000231A46FFF7B0BF85
:1009800007B50123019201AAFFF7AAFF03B05DF8A2
:1009900004FB1FB5CDE90123069B039301AA0323A2
:1009A000FFF79EFF05B05DF804FB000030B50E4C6C
:1009B000D4F8102403460020114629B9187242B910
:1009C000C4F810345A6030BD0D7A854205D04968AC
:1009D000F3E7516859605360F5E701300A28EBD11D
:1009E0004FF0FF30EFE700BF5401002038B5074B50
:1009F0000125D3F8104483F8205404B938BD236886
:100A0000657220465B6898476468F6E754010020E9
:100A100030B5C38885B004460D4633B1144A009200
:100A20001449154A284600F001FA217A05291DD0FB
:100A3000637A4BB1A088FFF723FE104B104953F89F
:100A40002020284600F0F2F9227A0E4BA08853F8B5
:100A5000222003920021FFF7F7FD039A0A4903467B
:100A6000284605B0BDE8304000F0E0B905B030BD23
:100A7000BC2B0000A42B00009C2B0000282C0000A5
:100A8000C12B00004C2C0000C42B000007B503460E
:100A90000846197A052911D05B7A2BB1094A0A490F
:100AA000019000F0C3F901980849019000F0BEF9E7
:100AB000019803B05DF804EB00F0ADB9002AF8D05E
:100AC000F2E700BFBC2B0000C12B0000B92B0000D7
:100AD0002DE9F04385B01F460C9D002395F80C903E
:100AE0002B7306460C46904629463846FFF790FF82
:100AF000B8F1060F09D8DFE808F00412181F2833F0
:100B000040003146284600F091F900222946384637
:100B1000FFF7BCFF85F80C9005B0BDE8F0832268B4
:100B20003146284600F082F9EFE7D4E90023314648
:100B3000284600F07BF9E8E7A36800933146D4E942
:100B40000023284600F072F9DFE7E3680193A36809
:100B500000933146D4E90023284600F067F9D4E732
:100B600023690293E3680193A36800933146D4E9B3
:100B70000023284600F05AF9C7E763690393236905
:100B80000293E3680193A36800933146D4E90023FC
:100B9000284600F04BF9B8E708292DE9F74F8046C1
:100BA0000E4617461C4639D8002593F80C901D7345
:100BB00019461046FFF72CFFDFF880A0DFF880B061
:100BC000AE422ED918F805205946204600F02EF9DD
:100BD0000135082DF4D11849DFF868A0DFF868B0B6
:100BE000204600F023F90025AE421FD918F8052051
:100BF0000192104601F0D0FE0028019A594608BF24
:100C00002E22204600F012F90135082DECD10122E8
:100C100021463846FFF73AFF84F80C9003B0BDE850
:100C2000F08F5146204600F001F9D1E751462046A9
:100C300000F0FCF8E8E700BFD82B0000D42B000040
:100C4000CE2B0000D62B0000DA2B00001FB50021B0
:100C5000039001AA44F20100CDE9011100F004F86B
:100C600005B05DF804FB000010B572B6FFF7BEFEDC
:100C7000FFF726FD0028FBD1104C11492088000405
:100C800040F00100FFF778FE0E4BD3F8F030DB07A1
:100C900000D500BE20880C49000440F00200FFF798
:100CA0006BFEBFF34F8F0749084BCA6802F4E0623E
:100CB0001343CB60BFF34F8F00BFFDE71000002050
:100CC000602C000000ED00E06C2C00000400FA0530
:100CD00072B6024A1368013313607047780500202A
:100CE000034A1368013B136003B962B6704700BF43
:100CF00078050020FFF7ECBFFFF7F2BF10B5034601
:100D000053E8000F0A4643E8002494F0000FF7D19F
:100D100010BD10B5034653E8002F42EA010043E836
:100D2000000494F0000FF6D110BD10B5034653E84F
:100D3000000F00EA010243E8002494F0000FF6D10E
:100D400010BD10B5034653E8002F02EB010043E845
:100D5000000494F0000FF6D110BD10B5034653E81F
:100D6000002FA2EB010043E8000494F0000FF6D13D
:100D700010BD0121FFF7CDBF0021FFF7D6BF10B591
:100D800090B1D0E9012301689B1ADBB20A60013BF4
:100D9000DBB2FF2B026802D10020107110BD116878
:100DA0004C1C14600B70F2E70E20F7E738B50446D0
:100DB0000020FFF79FFF226863681168994213D9EA
:100DC000481E106011F8013CE568A18A01FB03553B
:100DD000A36811791B1ADBB2994200D2137100206B
:100DE000FFF78AFF284638BD0025F8E738B50546E5
:100DF00000200C46FFF77EFF2A681368591C11601B
:100E0000E968641AA98AB4FBF1F41C70BDE83840A3
:100E10000020FFF771BF826810B504462AB143690C
:100E20000168006998470023A36010BD0EB403B5A4
:100E3000039921B104AB01AA019300F06FF802B04D
:100E40005DF804EB03B07047826830B40468551C49
:100E50008560A154D0E901329A4202D330BCFFF739
:100E6000DABF30BC704700002DE9F84F9846DDE945
:100E70000A43154682460F460A464FF00109AA4228
:100E80000FD2C14538BFC14613F0010B01D16CB977
:100E900000240126B8F1010F1BD908F1FF386E4379
:100EA000F8E709F10109B2FBF5F2E8E79B070ED577
:100EB000B8F1000F0CBF30262026A145E9D2013C35
:100EC00031465046FFF7C0FF002CF6D1E0E7202660
:100ED000F3E7B7FBF6F39D42E1D9DFF83C80B7FBBF
:100EE000F6F3504618F8031006FB1377FFF7ACFF34
:100EF0003346AB42B6FBF5F6F1D2BBF1000F02D0A0
:100F00000CB1A14501D3BDE8F88F20215046013C2A
:100F1000FFF79AFFF4E700BF792C00002DE9F74FA7
:100F2000054617468846002900F03E8118F8011B47
:100F300049B92B7B002B00F03781284603B0BDE870
:100F4000F04FFFF768BF252940F0B780002698F8DA
:100F500000302D2B424608F1010823D0302B24D03D
:100F60002B2B25D000242A2B02F1010123D13B6831
:100F70001A1D1B683A601C440A4613782E2B26D192
:100F800001324FF0000A104610F8011BA1F1300C9D
:100F9000BCF1090F1DD80A2303FB0A13A3F1300A81
:100FA0000246F0E746F00106D1E746F00206CEE73A
:100FB00046F00406CBE711F8013CA3F13000092804
:100FC000DBD80A2202FB0434303C0A46CBE74FF060
:100FD000000A12F8011B01F0FB0068289046F8D0C7
:100FE000782909D86F290CD8632962D022D82529FD
:100FF00063D0582900F0888098F80030002B95D1F4
:1010000097E770390829F7D801A353F821F000BFFA
:1010100083110000F90F0000F90F00001911000002
:10102000F90F0000F7100000F90F0000F90F0000A1
:1010300009110000642901D06929DDD13A68D2F88C
:101040000090111D89EAE9723960A2EBE9724FF054
:10105000010B092A35DCD34538BFD3462CB1B9F191
:10106000000F01DB720700D5013CB30702D5BAF1CE
:10107000000F03D0F00701D44CBB0024B9F1000FDE
:101080002DDAC9F100092D212846FFF7DDFE06F013
:101090000302022A04D1BAF1000F01D11CBB0024C3
:1010A000CDE9004653460A2249462846FFF7DCFEB2
:1010B000A2E73B681A1D19783A602846FFF7C4FE7C
:1010C0009AE70A230BF1010BB2FBF3F2C1E7A34548
:1010D000D4D220212846013CFFF7B6FECCE77107A9
:1010E000D5D52B21D0E7A345DAD230212846013CC3
:1010F000FFF7AAFED2E73968CDE900460A1D3A603B
:1011000053460A220968D0E739680A1D3A60CDE9DA
:10111000004653461022F5E73B681A1D3A6016F068
:101120000106D3F8009024D1B9F1000F03D048464E
:1011300001F0B5FC0646B4421DD809F1FF3919F893
:10114000011F00293FF458AF2846FFF77DFEF6E760
:1011500028460136FFF778FE19F806100029F7D166
:10116000A642BFF449AF20212846013CFFF76CFEA0
:10117000F6E70026F0E720212846013CFFF764FE51
:10118000D9E73B681A1D3A60302128461C68FFF7F2
:101190005BFE78212846FFF757FE00220823CDE9A1
:1011A00000322146102280E703B0BDE8F08F00BF77
:1011B000FFF7E5BDF8B546790146721E05460023E6
:1011C00093422D6803D30024A64202D8F8BD013310
:1011D000F6E70F682846FFF709FE01343946F3E7C2
:1011E0002DE9F843868ACD1C0746FFF7DFFD043E54
:1011F00035440446B5FBF6F5F0B14FF48073EDB21B
:101200008380C680013D076081464FF00008A845F5
:1012100012D23846FFF7CAFD064648B1637901335A
:10122000637108F10108C9F8000007608146EEE724
:101230002046FFF7BFFF34462046BDE8F883012172
:101240000430FFF77EBD10B5012104460430FFF7DE
:1012500084FDC0B220B92046BDE81040FFF7AABF08
:1012600010BD2DE9F843B0F8068004330546B3FB02
:10127000F8F40F46164608FB14333CB9A8EB0309F3
:10128000B14528BFB14626B9BDE8F8832D68013CB9
:10129000F3E70433E818A6EB09064A46391901F0CA
:1012A00080FBB0454C442D68C1464FF0000328BF79
:1012B000B146E8E72DE9F843B0F806800433054667
:1012C000B3FBF8F40F46164608FB14333CB9A8EB01
:1012D0000309B14528BFB14626B9BDE8F8832D689A
:1012E000013CF3E70433E918A6EB09064A4638192E
:1012F00001F057FBB0454C442D68C1464FF0000348
:1013000028BFB146E8E700001FB503788DF800302C
:101310008388ADF8043083688DF80630C3688DF893
:101320000730036902934369054A0393054B6846F6
:1013300053F8213052F82110984705B05DF804FBAE
:101340007C05002084050020024B4FF4807043F0A0
:1013500001031847902C00001F2886BF054A00F0A3
:101360001F004FF0A042012303FA00F0C2F8080565
:10137000704700BF000300502DE9F047154690F874
:101380000080394A42F82850384A42F828304B7BCE
:1013900006460C46A3B30868DFF8D8904FF0A0418A
:1013A00000F5E07340F20C6241F82320636803F516
:1013B000E073002741F82320FFF7CEFF6068FFF7B6
:1013C000CBFF236803F5E07340F20D6241F8232060
:1013D000636803F5E0734FF0010A41F82320FFF73B
:1013E000B3FF63681F2B8ABF4A464FF0A04203F049
:1013F0001F03D2F8102522FA03F3DB070BD507BB36
:10140000002D1B4A434608BF2A462146301DBDE831
:10141000F04700F0FBB823681F2B86BF03F01F03C3
:101420004A464FF0A0420AFA03F3C2F80C35FFF720
:101430008BFF01372068FFF78FFFFFF785FF092F2C
:10144000CFD163681F2B86BF0A4903F01F034FF0FB
:10145000A041012202FA03F3C1F80C35FFF774FF33
:101460006068FFF779FFCBE7840500207C0500204A
:101470000913000000030050014B1B68184700BF10
:101480008C05002038B50B4B98420C4601D000204B
:1014900038BD0020FFF72EFC074B1D7915B901223E
:1014A0001C601A710020FFF727FC002DEFD01120DF
:1014B000EEE700BF002000408C05002000234350D1
:1014C00082B043580193019B02B07047F0B54B4D79
:1014D0004B4CD5F8243187B0A3B14FF49271284614
:1014E000FFF7ECFFD5F8043163B9A368C5F80833FA
:1014F0000223A360A368C5F8043301232B626B6148
:1015000007B0F0BDD5F80431002B48D03D4F3B4823
:101510004FF48271FFF7D2FF0FCF01AE0FC63B68C9
:10152000336094F82E307BB1237B012B0CBFD5F8B0
:101530003C25D5F84C250292022B304B0CBFD3F83A
:101540003C35D3F84C3503932C484FF4B071FFF77A
:10155000B5FF4FF4AE71FFF7B1FF94F8303013B11F
:1015600094F82E303BB1254B0022C3F80022A26034
:10157000254AC3F80823214AD2F8C434C2F8C43437
:101580009A0736D501238DF8003094F830300BB926
:1015900084F82F30D4E9003168469847B0E71748FF
:1015A0004FF4A471FFF78AFF237B83B9154F0FCF48
:1015B00001AE0FC63B68336094F83030002BDAD1AF
:1015C000C5F80032A360104BC5F80833D3E74FF4D9
:1015D0000073C5F8003240F20223A36003F1CE731A
:1015E000C5F80833A368C5F804330123AB602B6248
:1015F00086E713F0040318BF0223C4E7003000405D
:1016000094050020A005002002029C012DE9F84F5E
:1016100006793F4D4FF0340A0AFB06FA05EB0A043F
:101620009B4694F82D3080460F469146002B6BD197
:1016300038490068FFF726FF002867D13A687B7BAE
:1016400084F832301F2A8ABF02F01F031346324942
:10165000A06098BF4FF0A04103F5E07340F20C6C1E
:1016600084F82F0041F823C07B68C4F804B01F2B16
:101670008CBF03F01F01194684F8300001F5E071BA
:1016800088BF254C45F80A9098BF4FF0A04444F815
:1016900021C0D8F80040C4F80825C4F80C35BB6850
:1016A000C4F82435B9F1000F26D044F30733002BDA
:1016B0003A7BB4BF194903F16041C4F307344FEAE0
:1016C0005313B8BF04F00F074FEA4212A8BF01F549
:1016D00061414FEA8303D2B203F16043B4BFCA55FC
:1016E00081F8002303F5614304F01F04012202FA8C
:1016F00004F4C3F880411C60342303FB0655012326
:1017000085F82D30BDE8F88F0820FBE71120F9E7B8
:1017100094050020CD1400000003005014ED00E0FB
:10172000036802790621C3F80015044B342101FB3C
:101730000233022283F82D20704700BF9405002059
:101740002DE9F843CB6803F06043B3F1005F0D4629
:10175000904603D010263046BDE8F88390F80490F8
:10176000924F0468924BC4F80833342606FB09767E
:1017700096F82F3023B1B368C4F804331126EAE792
:1017800012F0140F0CBF0123002386F82F308E4671
:10179000BEE80F0006F10C0CACE80F00DEF80030DC
:1017A000CCF80030C8F3001386F830306B78C4F8FA
:1017B00088354FF482712046FFF780FE4FF4927116
:1017C000FFF77CFE18F0010318BF0123C4F8503561
:1017D00018F0020318BF0123C4F840352B78032BFF
:1017E00000F2C280DFE803F084AA68022B6903F0EC
:1017F0006043B3F1005FADD14FF48073C4F80032A1
:10180000EA686B68C4F844254FF4A871C4F84835F9
:10181000FFF754FE4FF4B071FFF750FE4FF4A47180
:10182000FFF74CFE01232362A360D4F85031002B54
:10183000FBD04FF4A8712046FFF740FEAB682A6941
:10184000C4F84425C4F848355A4A342303FB0973C5
:101850009A604FF482710823002618F0080F04D113
:101860002A78032A1CBF0122E250342303FB09F328
:10187000FA18FB58002B7CD1012221440B68002B65
:1018800000F084803422D4F8C434C4F8C43402FB99
:101890000977002287F82F20002B3FF45CAF13F06C
:1018A000020F48F2012608BF032613F0040F48F286
:1018B000022318BF1E464EE76B68EA68C4F8442549
:1018C000C4F848352B6903F06042B2F1005F7FF441
:1018D00041AFAA68C4F834354FF48453C4F83825AE
:1018E000C4F80032342303FB097340F20222AFE74D
:1018F0006B68EA68C4F8442518F0200FC4F848352E
:101900004FF034030ED04FF4807203FB0973C4F818
:101910000022284A9A604FF4A471FFF7CFFD0123FB
:10192000236298E74FF4007203FB0973C4F80022A6
:1019300040F202229A604FF48271F0E76B68EA6825
:10194000C4F83425C4F838354FF48053C4F8003255
:10195000342303FB097340F202229A6001232362BD
:101960004FF48271002377E74FF482710823072632
:1019700073E718F0040F1CBF4FF400739360342317
:1019800003FB0977BB68C4F80433E4E6D4F82431D8
:10199000002B3FF473AF4FF492712046FFF78EFD9A
:1019A00022624FF48271626167E700BF94050020F4
:1019B00002029C0100020400F0B587B004460F4605
:1019C00015460021142201A81E4601F013F89DF8C7
:1019D00030308DF80570002B14BF2022002201A9A1
:1019E000204602960495FFF7ABFE07B0F0BDF0B5B8
:1019F00087B004460F4615460021142201A81E4652
:101A000000F0F8FF0123002201A920468DF80430E0
:101A10008DF8057002960495FFF792FE07B0F0BDB1
:101A200038B5054D4FF4FA6445F001054FF47A409E
:101A3000A847013CFAD138BD702E0000037863B985
:101A400003795BB9074AD2E90031013341F1000162
:101A5000C2E90031044B01221A707047012BF9D101
:101A6000024AF0E7D0050020DB050020C805002071
:101A70001FB50B4B0FCB6C4684E80F002146094A7B
:101A800009480023FFF778FC044608B1FFF7DEF8A9
:101A90000648FFF745FE201E18BF012004B010BD08
:101AA000602E00003D1A0000782E00007C2E000001
:101AB00030B50E4D85B000238DF80C108DF80D203B
:101AC0002B70009301460223094803AAFFF774FF15
:101AD000044608B1FFF7BAF82B7823B1201E18BFCF
:101AE000012005B030BD20BFF6E700BFDB050020B8
:101AF0007C2E0000F0B5174D85B000238DF80F1037
:101B00002B700093014606461746134801230DF13A
:101B10000F02FFF751FF044608B1FFF797F82B7843
:101B200093B1ACB90C482C7001233A463146FFF70B
:101B30005EFF044608B1FFF789F82B7833B1201E09
:101B400018BF012005B0F0BD20BFE8E720BFF4E7D3
:101B50000120F7E7DB0500207C2E000038B50E4D94
:101B600001212A463C20FFF7C5FF0C4B044618888C
:101B700000044CB92A78A02A06D1094940F0030094
:101B8000FEF7FAFE204638BD064940F00300FEF796
:101B9000F3FE0124F6E700BFD80500201000002066
:101BA000AA2C0000D62C000013B504460DF1070244
:101BB00002213C20FFF79EFF114B18709DF8070093
:101BC0003F3800F0E9FD0CA3D3E9002300F04EFC00
:101BD00000F010FE00F0F4FD41EC100B00F034FEBC
:101BE00051EC100B00F0C4FDC0B22070B0FA80F0D0
:101BF000400902B010BD00BF7B14AE47E17AE43F5C
:101C0000240000200000000013B504460DF1070277
:101C100003213C20FFF76EFF114B18709DF8070061
:101C20003F3800F0B9FD0CA3D3E9002300F01EFCFF
:101C300000F0E0FD00F0C4FD41EC100B00F004FEEC
:101C400051EC100B00F094FDC0B22070B0FA80F09F
:101C5000400902B010BD00BF7B14AE47E17AE43FFB
:101C6000240000200000000008B500F095FD0EA340
:101C7000D3E9002300F096FC094B002200F0D4FACF
:101C800041EC100B00F0E0FD51EC100B00F070FD8A
:101C90000221C2B23C20FFF70BFF024B187008BDB7
:101CA00000804F40240000207B14AE47E17AE43FDF
:101CB00008B500F071FD0EA3D3E9002300F072FC1B
:101CC000094B002200F0B0FA41EC100B00F0BCFD13
:101CD00051EC100B00F04CFD0321C2B23C20FFF789
:101CE000E7FE024B187008BD00804F402400002022
:101CF0007B14AE47E17AE43F73B5264C264E274D60
:101D0000224606213C20FFF7F5FE2A4630700721C7
:101D10003C20FFF7EFFE2A7823789FED216A307090
:101D200043EA022307EE903AF8EEE76A1D4B86EE8F
:101D3000867AC3ED006A1C4B1888B5EEC07A0004A1
:101D4000F1EE10FA40F0030021D5FFEE007AB4EE78
:101D5000E77AF1EE10FA1ADD144A1549FDEEC76A6A
:101D6000B5EEC07AF8EEE67AF1EE10FACCBF77EE77
:101D7000677A77EEC77A16EE903A67EE867AFDEECE
:101D8000E77ACDED007AFEF704FE02B070BD094A95
:101D9000E3E700BFDD05002024000020DC05002073
:101DA0000000C842E0050020100000203F2D000088
:101DB000FE2C0000BB2B000008B54FF400410020B2
:101DC000FEF718FC08B1FEF741FFBDE80840FEF73A
:101DD00043BB0000384C394D80B5FFF7EDFF20883C
:101DE0003749000440F00300FEF7C6FD208835495E
:101DF000000440F00300FEF7BFFDFFF711FEFFF700
:101E000037FE2388287000284DD118042E492F4F03
:101E10002F4E40F00300FEF7AFFD20882D4900044F
:101E200040F00300FEF7A8FDFFF7FAFDFFF796FE6E
:101E3000287020882849000440F00300FEF79CFD2C
:101E40005020FFF711FF1420FFF732FF3846FFF74D
:101E5000ABFE28703046FFF7D7FE287020883A780E
:101E60001E49000440F00300FEF78AFD2088327806
:101E70001B49000440F00300FEF782FD194B0522C8
:101E80001A70042134223C20FFF712FE28702088AB
:101E90001549000440F00300FEF76EFDFFF72CFF2C
:101EA000FFF7BEFDFAE7180440F003000F49FEF704
:101EB00063FD0120FEF77EF91000002024000020C1
:101EC0001D2D0000412D00005E2D0000E4050020C6
:101ED000DA050020832D00009A2D0000DB2D000084
:101EE000FB2D0000D90500201B2E0000302E000025
:101EF0000369C26893429CBF80681B18013B981A13
:101F000070472DE9F843D0E902940546A9EB04088F
:101F10004068904520440F46144404D900F041FD28
:101F2000EC60BDE8F8834246A4EB090400F039FDFB
:101F30006868224607EB0801F0E72DE9F843C56819
:101F40000646894617464FF000083469B368706842
:101F5000A54228BFE418013C621B5C1BBC4228BFA1
:101F60003C46944228BF144649462844224600F085
:101F700018FDB3682544AB4208BF00253F1BA044B1
:101F8000A144F560E1D14046BDE8F88310B5114C9D
:101F9000114AA2610223C4E90433104BE361A26435
:101FA0004FF400730E4A0F492362E26400231022AB
:101FB000E01DA3626362E362A3656365E365226576
:101FC00000F04BFD0849204600F047FD2023A37197
:101FD00010BD00BFE8050020882E0000700600201C
:101FE00060060020912E0000952E000070B5164B63
:101FF000182400FB04451D4404FB00331646DC6A2C
:10200000012C0ED0022C18D0E4B92846FFF770FF3F
:10201000864204D832462846FFF773FF34462046EE
:1020200070BD2846FFF764FF8642344628BF044649
:1020300022462846FFF765FFF1E72846BDE87040D5
:10204000FFF77BBF0024EAE7E8050020FFF79EBF0B
:102050004FF08053D3F83021082A03BFD3F834015E
:10206000B0FA80F0400900207047000008B54FF03A
:1020700080430022C3F80C21C3F81021C3F838258F
:102080004FF0805203F54043D2F80414C3F82015F2
:10209000D2F80814C3F82415D2F80C14C3F8281584
:1020A000D2F81014C3F82C15D2F81414C3F8301554
:1020B000D2F81814C3F83415D2F81C14C3F840151C
:1020C000D2F82014C3F84415D2F82414C3F84815E4
:1020D000D2F82814C3F84C15D2F82C14C3F85015B4
:1020E000D2F83014C3F85415D2F83414C3F860157C
:1020F000D2F83814C3F86415D2F83C14C3F8681544
:10210000D2F84014C3F86C15D2F84424C3F87025F3
:10211000FFF79EFF18B13B4B3B4AC3F88C26FFF7F5
:1021200097FF18B1394BFB22C3F81825FFF790FF32
:1021300070B14FF080414FF08053D1F8E42ED3F8C6
:10214000583222F00F0203F00F031343C1F8E43EAC
:10215000FFF77EFF20B12E4B4FF40072C3F84026EC
:102160004FF08043D3F80024D20744BF6FF0010240
:10217000C3F80024274AD2F8883043F47003C2F829
:102180008830BFF34F8FBFF36F8F4FF01023D3F81A
:102190000022002A03DBD3F80432002B2EDA1E4B78
:1021A0000122C3F80425D3F80024002AFBD04FF005
:1021B00010221221C2F80012D3F80024002AFBD00A
:1021C0004FF010231222C3F80422134BD3F800243B
:1021D000002AFBD00022C3F80425D3F80024002AEB
:1021E000FBD0BFF34F8F0B490C4BCA6802F4E0627F
:1021F0001343CB60BFF34F8F00BFFDE7084B094A85
:102200001A6008BD005000404881030000F0004003
:102210000090024000ED00E000E001400400FA05FB
:10222000280000200090D00330B591EA030F00F1A0
:102230008480841A71EB030C05D2121953EB0C0342
:10224000001B71EB0C0140F2000CCFF6E07C1CEAA5
:10225000430F54D0BCEB410F61D90C0DA4EB135EBE
:1022600031EA0C0141F4801133EA0C0343F480138A
:10227000DEF1200C2AD303FA0CF5401941F10001DC
:1022800022FA0EF5401923FA0EF5694112FA0CF202
:10229000CD0208D349085FEA30005FEA320228BF66
:1022A00042F001020134013C5FEA500C72F100423D
:1022B00050F1000051EB04514FF4001313EB410FA8
:1022C00038BF30BD090D0905002030BDBEF1200E1C
:1022D000BEF1200F1ED223FA0EF5401941F1000184
:1022E000CEF1200C124218BF012203FA0CF52A434A
:1022F000CEE711EA5C0F04BF0020002130BD1CEACC
:10230000410F04BF01F00041002030BD01F0004149
:10231000002030BD21F4801101EB045130BD00429A
:1023200018BF41F00101BCEB410F08BF30BD4FF0B9
:10233000FE4141F47801002030BD83F00043841A4F
:1023400071EB030E07D28EF0004E001B71EB0E01F5
:10235000121953EB0E0340F2000CCFF6E07C1CEA9E
:10236000430FC6D0BCEB410F72D90C0DA4EB135E2A
:10237000C90241EA5051C00241F00041DB0243EA88
:102380005253D20243F00043DEF1200C41D312FA43
:102390000CF522FA0EF203FA0CF542EA050218BF18
:1023A00042F0010223FA0EF3801A9941E30AC4F3C2
:1023B0000A0411F0404F03D418D0013C40004941B9
:1023C000013C23D44205C00A40EA4150C90A51EAFF
:1023D000C3715FEA500C72F1004250F1000051EB02
:1023E000045130BD01002FD00020203C0029F9D03D
:1023F000B1FA81FCDCF1200E11FA0CF130FA0EF585
:1024000010FA0CF02943A4EB0C04D9E70020D907FB
:1024100030BDAEF1200EBEF1200F0DD2CEF1200C5A
:1024200003FA0CF533FA0EF32A4318BF43F0010305
:10243000C01A61F10001B9E721F00041C00A40EA89
:102440004150C90A01EB045130BD0020002130BDCC
:10245000004218BF41F00101BCEB410F7FF467AFB0
:10246000BCEB430F3FF463AF30BD00BFF0B540F2AB
:10247000FF7681EA030C16EA115E1EBFB64516EA26
:102480001355B5425AD021EA465141F48011A1FBBF
:10249000024723EA465343F48013AE44A0FB03658E
:1024A0000CF0004C36197D41A1FB034747F10003B6
:1024B000A0FB0217F619654153F10003094218BF4A
:1024C00046F0010640F2FE74B3F5007F13D2AEF57C
:1024D000806EA6452BD24CEA0331280341EA155100
:1024E00040EA16503203450872F1004250F10000F4
:1024F00051EB0E51F0BDAEF2FF3EA64517D24CEAAD
:10250000C321E80241EA555140EA5650F20245081B
:1025100072F1004250F1000051EB0E51F0BD0CF091
:10252000004141F0FE4141F470010020F0BD1EEA7F
:102530000E0FF4D50CF000410020F0BD16EA115F3B
:1025400004BF01F000410020004218BF41F001012A
:1025500016EA135F04BF03F000430022124218BFC3
:1025600043F0010306EA1354B44218BF9EEA060F73
:1025700003D00CF000410020F0BD21F0004123F019
:102580000043B1EB065F06D8B3EB065F03D8002922
:1025900018BF002BC3D140F20001C7F6F87100202C
:1025A000F0BD00BF2DE9F04391EA030E0EF0004E9E
:1025B00040F20007CFF6E07717EA41051EBF95EA23
:1025C000070F17EA430595EA070F00F0A1807F0D7A
:1025D00017EA135623EA475343F4801317EA1155B9
:1025E00021EA475141F48011AD1B05F2FD354FEA58
:1025F000D31C1CF1010C4FF00047B7FBFCF77F0127
:10260000A2FB079C0024E3FB07C4DCF1000CD9F11A
:1026100000097CF1000CA0FB07620020E1FB072011
:1026200000275FEAC628E0FB0987760D46EAC22646
:10263000520DF61900277A41E0FB0C625FEAC823CD
:10264000E2FB09375FEA585848EAC628760D18EBCE
:10265000070800214E41E2FB0C8602EBC020DA02A3
:10266000E6FB09215B0D43EAC8235FEA58585B1873
:10267000002758EB0708E6FB0C38D102E8FB0917E6
:10268000520D42EAC3225B0DD21900277B41E8FBC1
:102690000C2308EBC6265FEAC128E3FB0987490D36
:1026A00041EAC221520DC91942F10002E3FB0C12AA
:1026B000470019EB08095CEB010C72EB040453EBC7
:1026C000C62047EB56530026B3F5000F7641AD19EF
:1026D0000236D6F1200910FA09F4F04013FA09F293
:1026E0001043F340E40F001943F10003B3F5001F5A
:1026F00024BF5B08013540F2FE77BD4204D24EEAAA
:1027000005511944BDE8F0832D4224D5714626E0D9
:10271000004218BF41F00101124218BF43F001030B
:10272000B7EB410F2CBFB7EB430F1BE0B7EB410FEB
:1027300004BFB7EB430F15E017EA410F04BF17EAD8
:10274000430F0FE017EA410FE0D017EA430F02D022
:10275000B7EB430FDAD04EF0FE4141F47001002098
:10276000BDE8F08340F20001C7F6F871F7E700BF5B
:102770000B0D40F21E42D21A09DBCB0243EA505045
:1027800040F00040202A28BF2022D0407047490056
:1027900060EB0000704700BF80B110F0004248BFFE
:1027A000D0F10000120D02F21D42B0FA80F1884013
:1027B000521AC30A400503EB0251704701007047EB
:1027C000C0F3C75191B142004FEA40704FEAD201C5
:1027D0004FEA310101F16051B2F17F4F38BF7047CC
:1027E00001F1605118BF41F40021704710F0004121
:1027F0000020704701F000428B1AA3F16051B1F53F
:10280000801F0ADBB1F17F6F09D242EAC102C10029
:1028100071F1004142EB507070471046704701283B
:102820005B4113F5001F04D842F0FE4040F4000065
:102830007047C90041EA507040EA020040F480004D
:1028400040F08040704700BF53EC102BC3F30A5C8C
:10285000ACF2FF31132910B510EE100A9E4622DCAF
:10286000002909DB1F4C44FA01FC03EA0C04204355
:1028700010D143EC102B10BD03F0004E013104BF0A
:102880004EF07F5E4EF4401E00207346024643EC3D
:10289000102B10BD4FF4002343FA01F18E442EEAB1
:1028A0000C0E0020F1E7332908DDB1F5806FE0D18F
:1028B0001946FFF7B9FC41EC100B10BDACF2134CFC
:1028C0004FF0FF3424FA0CFC12EA0C0FD1D0012394
:1028D000C1F1330103FA01F1401828BF9E4420EAF8
:1028E0000C00D2E7FFFF0F007F2805D8034B185CD0
:1028F000034B5B5C1840704700207047A82E000017
:10290000282F0000A0F16103192B98BF20387047D1
:10291000A0F14103192B98BF203070477F2805D8BC
:10292000034B185C034B5B5C1840704700207047FA
:10293000A82E0000282F0000A0F16103192B98BFDA
:1029400020387047A0F14103192B98BF2030704701
:102950007F299ABF017001206FF02E0070475AB195
:102960000A787F2A0AD800B10260002119605960F4
:10297000501A18BF01207047002070476FF02E00DA
:102980007047000008B5034B5B689B681B6898475D
:1029900008BD00BF2C00002008B50921FFF7F2FF99
:1029A00008BD844640EA010313F0030F18D18446A2
:1029B000202A0BD32DE9F007B1E8F807A0E8F807C3
:1029C000A2F12002202AF7D2BDE8F007042A07D39B
:1029D00051F8043B40F8043BA2F10402042AF7D268
:1029E000002A05D011F8013B00F8013B013AF9D16A
:1029F000604670478446002A2DD010F0030F04D0A3
:102A000000F8011B013A26D0F7E7C9B241EA0121DB
:102A100041EA0141202A12D3A2F120022DE9F0035C
:102A20000B460C460D460E460F4688468946A0E8E2
:102A3000FA03203AFBD2BDE8F00320320BD0042A7F
:102A400005D340F8041B043A05D0042AF9D200F853
:102A5000011B013AFBD160467047024610F0030F9C
:102A600016D111F0030F13D12DE9F0004FF001370B
:102A70004FF0803351F8044BA4EB070525EA040519
:102A80001D4002D142F8044BF4E7A1F10401F0BC6F
:102A900011F8013B02F8013B002BF9D1704700F11E
:102AA000010110F0030F11D010F8012B002A23D0E0
:102AB00010F0030F0AD010F8012B002A1CD010F0E0
:102AC000030F03D010F8012B002A15D02DE9700058
:102AD0004FF001324FF0803350F8044BA4EB020565
:102AE00025EA04051D4000D1F6E7A0F1040070BC02
:0E2AF00010F8012B002AFBD1A0EB010070476B
:102B0000962C0000000000009A2C0000000000003D
:102B10009F2C000000000000A42C0000000000001A
:102B2000852B000000000303892B00000000000338
:102B3000840000204C010020540100208C00002063
:082B4000140000201800000041
:102B4800000000000000000000000000000000007D
:082B5800000000000000000075
:102B60000338FDD8704700002503000091030000E2
:102B7000210300004261636B656E647320666C75AF
:102B800073686564006170700062616C6C6F632EC5
:102B90006C6F675F6D656D706F6F6C001B5B313BB9
:102BA00033316D0025734C6F67732064726F7070E2
:102BB0006564202825642925730D0A001B5B306D90
:102BC000002573003C25733E2025733A2000202504
:102BD00030327800202020007C002563001B5B3110
:102BE0003B33306D001B5B313B33326D001B5B317F
:102BF0003B33336D001B5B313B33346D001B5B316A
:102C00003B33356D001B5B313B33366D001B5B3155
:102C10003B33376D007761726E696E6700696E666F
:102C20006F00646562756700BC2B0000DD2B00003F
:102C30009C2B0000E52B0000ED2B0000F52B000085
:102C4000FD2B0000052C00000D2C000000000000F2
:102C5000662C0000152C00001D2C0000222C00000A
:102C6000466174616C206572726F7200537973747F
:102C7000656D2072657365740030313233343536DA
:102C80003738394142434445460000000000000007
:102C90000338FDD87047505253005457494D0055E2
:102CA0004152540055415254450054574920536CE9
:102CB000617665202D2053545453323248202D2004
:102CC00044657465637465642073756363657373C9
:102CD00066756C6C790054574920536C6176652099
:102CE0002D2053545453323248202D2044657465AE
:102CF0006374696F6E206661696C757265005465F6
:102D00006D70726174757265203D20257325642E87
:102D1000253032642043656C63697573002D2D2D59
:102D20002D44656D6F206F662053545453323248E2
:102D3000206F6E206E524635323834302D2D2D2DB9
:102D400000545749204D617374657220496E69744F
:102D500069616C697A6174696F6E2E2E2E0054570A
:102D600049204D617374657220496E697469616CA4
:102D7000697A6174696F6E207375636365737366D6
:102D8000756C0054574920536C6176652044657416
:102D9000656374696F6E2E2E2E002D2D2D2D5365BB
:102DA0007474696E6720557070657220616E64205E
:102DB0004C6F776572207468657273686F6C6420FD
:102DC00074656D7072617475726520666F722053E0
:102DD0005454533232482D2D2D2D0075707065726C
:102DE0005F7468657273686F6C645F74656D707230
:102DF0006174757265203D202564006C6F77657283
:102E00005F7468657273686F6C645F74656D70720F
:102E10006174757265203D202564004F445220691D
:102E200073207365742069732032303020485A0053
:102E3000545749204D617374657220496E697469F5
:102E4000616C697A6174696F6E204661696C757234
:102E5000652C2045786974696E672E2E2E0000005F
:102E60001B0000001A000000000098010201000091
:102E70000338FDD87047000000000000003000401B
:102E800000000000010000005465726D696E616C05
:102E90000052545400534547474552004300000038
:102EA000504F53495800000020202020202020208F
:102EB00020682828282820202020202020202020AA
:102EC000202020202020202048101010101010104A
:102ED0001010101010101010848484848484848452
:102EE0008484101010101010108181818181810163
:102EF00001010101010101010101010101010101C2
:102F00000101011010101010108282828282820250
:102F10000202020202020202020202020202020291
:102F200002020210101010200007032004170201F3
:102F300008571040800000009C2E0000A02F0000C9
:102F4000B430000053756E004D6F6E00547565000F
:102F500057656400546875004672690053617400D7
:102F6000000000004A616E00466562004D6172001B
:102F7000417072004D6179004A756E004A756C00AF
:102F800041756700536570004F6374004E6F7600A3
:102F90004465630000000000414D00504D000000FA
:102FA000D8300000D4300000D4300000D43000000D
:102FB000D4300000D4300000D4300000D430000001
:102FC000D4300000D4300000FFFFFFFFFFFFFFFF01
:102FD000FFFFFFFFFFFF000014300000442F000040
:102FE00050300000642F0000982F0000F82F0000E0
:102FF000A830000004300000256D2F25642F2579AE
:103000000000000025612025622025652025542030
:103010002559000053756E646179004D6F6E6461CF
:10302000790054756573646179005765646E6573E2
:1030300064617900546875727364617900467269DD
:1030400064617900536174757264617900000000F5
:103050004A616E7561727900466562727561727956
:10306000004D6172636800417072696C004D617956
:10307000004A756E65004A756C7900417567757315
:10308000740053657074656D626572004F63746F90
:10309000626572004E6F76656D62657200446563AD
:1030A000656D62657200000025483A254D3A25534A
:1030B00000000000E9280000052900001129000097
:1030C0001D29000039290000452900005129000070
:0A30D0005F290000000000002E0040
:1030DC00682B000000000000000000000100000050
:1030EC000090D003382F0000382F0000382F00003C
:0830FC00382F0000382F0000FE
:040000030000025D9A
:00000001FF
