:10000000000004205D020000B5020000B7020000FD
:10001000B9020000BB020000BD02000000000000A9
:10002000000000000000000000000000BF0200000F
:10003000C102000000000000C3020000C502000071
:10004000C9020000CB020000C11500002D160000FF
:10005000D1020000D3020000D5020000D702000048
:10006000D9020000DB020000DD020000DF02000018
:10007000E1020000E3020000E5020000E7020000E8
:10008000E9020000EB020000ED020000EF020000B8
:10009000F1020000F3020000F5020000F702000088
:1000A000F9020000FB020000FD020000FF02000058
:1000B0000103000003030000C7020000C7020000A4
:1000C0000503000007030000090300000B03000004
:1000D0000D0300000F0300001103000013030000D4
:1000E000150300001703000019030000C7020000F9
:1000F000C70200001D030000C70200001B03000030
:10010000354936480A1A02D0072291438D463449B0
:1001100034480A1A06D00722914381F30988022243
:1001200082F3148830483149314A00F044F83148AC
:100130003149324A00F03FF831483249324A00F042
:100140003AF832483249334A00F035F832483349F8
:10015000334A00F030F833483349344A00F02BF882
:1001600033483449344A00F026F8344834490022F0
:1001700000F02CF833483449002200F027F83348C7
:100180003349091A082902DB002202604160314A22
:1001900090471F481F49884205D00268043003B4C5
:1001A000904703BCF7E700208646EC46002000217C
:1001B000294A9047FEE7884207D0521A05D00378B3
:1001C00001300B700131013AF9D17047884202D0F9
:1001D00002700130FAE770470000042000E00320BD
:1001E0000000042000000420282E00001800002039
:1001F000500000202003000020030000C22900005E
:10020000282E00001800002018000020242A0000DA
:10021000242A0000242A0000242A0000242A0000A6
:10022000242A0000242A0000242A0000262E000090
:10023000602E0000500000205000002050000020E0
:100240003E06002040060020400600204006002018
:100250004026002081020000892500000F484FF051
:100260000701884385460E4880470E48016841F4DF
:1002700070010160BFF34F8FBFF36F8FFFF740BF77
:1002800009480A490A4A884207D0521A05D0037819
:1002900001300B700131013AF9D1704700000420A0
:1002A0003526000088ED00E00C2A00000000002048
:1002B00018000020FEE7FEE7FEE7FEE7FEE7FEE7A8
:1002C000FEE7FEE7FEE7FEE7FEE7FEE7FEE7FEE706
:1002D000FEE7FEE7FEE7FEE7FEE7FEE7FEE7FEE7F6
:1002E000FEE7FEE7FEE7FEE7FEE7FEE7FEE7FEE7E6
:1002F000FEE7FEE7FEE7FEE7FEE7FEE7FEE7FEE7D6
:10030000FEE7FEE7FEE7FEE7FEE7FEE7FEE7FEE7C5
:10031000FEE7FEE7FEE7FEE7FEE7FEE7FEE700BFDB
:10032000F0B595B01D46164608460C4600F0B9FFDC
:100330001A9B0D93CDE9086500252B46082205A9D7
:1003400020460A958DF82C500C9500F0E5FF079B90
:100350000293069B03939DF814308DF8115003F01F
:100360000302012A1DD1BDF81420059DC3F3C20369
:10037000C2F383168DF81030B20008230EA9204670
:1003800000F0CAFFC5F3952508AB0093324602ABD7
:100390000EA9284600F0CEFB204600F086FF15B0DF
:1003A000F0BD022AF8D1BDF81650C3F3C203C5F35D
:1003B00089158DF810300827082D2E4628BF0826ED
:1003C0003B4632460EA9204600F0A6FFAD1B08AB07
:1003D00002AA31460EA8374400F010FC002DEBD1E4
:1003E000DAE70000014B01221A70704791000020EB
:1003F0007047000070B50E4D06460FCD88B06C46B4
:100400000FC495E80F00002E84E80F00094A0A483F
:100410004FF0060308BF00226946009301F092F8EE
:1004200008B100F045FC054B1E7008B070BD00BF60
:10043000242A0000E50300001800002050000020DE
:1004400007B5044B0093044A4023FFF769FF03B04C
:100450005DF804FB5D0400005100002038B50D4834
:100460000D4C0E4D002323700378EB5CD2B263B1C8
:10047000043001F0DBFF08B100F01AFC084B1A78D9
:1004800012B12378002BFBD038BD0C3001F0A0FD59
:10049000F1E700BF1800002091000020AC0500200B
:1004A0005000002008B50848084A0378D35C3BB1E7
:1004B000043001F05BFFBDE808400020FFF79ABF61
:1004C0000C3001F025FDF6E718000020AC050020F7
:1004D0000120FFF78FBF000010B5054CFFF7F8FFB4
:1004E0000421204600F094FA0123637210BD00BF7E
:1004F0002C000020037813F0030F03F0040202D055
:1005000012B910467047B2B103F00303012B03D0B8
:10051000022B09D0012070470A6800880232C0F31C
:10052000831002440A60F5E70B684288023303EB4C
:1005300092130B60EEE70B684288013303EB9213D2
:100540000288F4E72DE9F04FDFF824A10F4685B0CB
:100550000446861C0020154600F0FEFBDAF8001069
:100560003960DAE90132134401335B1A0AF21C479D
:100570000AF583690AF21448B3421BD30020002D08
:1005800072D004F00F039B0143F0050363F30F00E7
:10059000DAF80020DAF808301340033332444AF81E
:1005A00023000020CAF8002000F0D8FB012005B08D
:1005B000BDE8F08F0121384600F0F5FB484600F019
:1005C0000AFC404600F007FCDAF80400DAF808B04C
:1005D000009000EA0B0003300AEB80006946FFF749
:1005E00089FF009B50BB0BEA03020AEB820203F176
:1005F000020CD2680192013303EA0B0B0AEB8B0B5E
:1006000002F00302012ADBF80C10CDF800C023D061
:10061000022A16D08346404600F0E0FB10B1009B52
:10062000CAF804305946384600F0BDFBDAE9012328
:100630001344DAF8002001339B1A9DE70BEA03000C
:10064000C9E7BDF80630C3F3891303334FEA114BF2
:100650000CEB93030093DEE7BDF80430C3F3831380
:100660004FEA114B6344F5E7A40544F006008FE719
:100670006401002008B50E4B0E48FF229A6000224C
:10068000C3F81824C3E90022C3F8142483F82024F3
:1006900000F0C0FD38B9084A084B09499B1ADB082D
:1006A00002469A4200D108BD21F822200132F8E723
:1006B00064010020F4290000C4290000F42900008E
:1006C0000000002030B50A4C71B10A4A0A49121BD9
:1006D000D20800239A4201D1002030BD31F82350C6
:1006E000854202D00133F5E7034654F83300F4E7BE
:1006F000C4290000F429000002000020094B013940
:1007000003EBC000032909D8DFE801F00A02040660
:100710000420704700797047407970470020704787
:1007200002207047C4290000034BD3E90030C31AEC
:1007300058425841704700BF640100202DE9F04342
:1007400085B0FFF7F1FF0646002840F0FA807E4CA6
:10075000C4F81804BFF34F8F6368A56800932B405B
:10076000033304EB83006946FFF7C4FE009A074693
:10077000002865D105EA020304EB8303911C0132D2
:10078000DB6801932A4004EB820203F00303D26882
:100790000091022B02926BD1BDF806306B48C3F377
:1007A0008918B8F1500FC14628BF4FF0500909F120
:1007B000080169F38F13C1F30901ADF8063000F0A9
:1007C00041FD0646002800F0AA8000F06AFD3B4685
:1007D000082201A9304600F076FD009925EA0102C1
:1007E0000132B9EB820F4FEA82033AD95FFA89F9F5
:1007F0009BB32940DDB2A9EB050903315FFA89F704
:10080000A946534D04EB810108234A46304600F0C7
:100810005AFD45B109F108095FFA89F33A462946BC
:10082000304600F050FD009B08F1030803EB9803ED
:100830000093D4F81834002B4FD1D4F810545DE055
:100840002368934204D86360304605B0BDE8F08366
:100850002A40033204EB820085E73D491D461F46CE
:10086000D2E72940033108234A4604EB8101D7E748
:10087000012B54D1BDF804303448C3F38311062949
:1008800028BF062161F38913023101F00F018900AD
:10089000ADF8043000F0D6FC064600283FD000F04A
:1008A00000FD3B46082201A9304600F00CFDBDF8D2
:1008B0000420C2F38312BB00974203F10803B8D2AD
:1008C00000994A1C29400331009204EB8101042263
:1008D000304600F0F8FC0137E9E7304600F0E5FC6F
:1008E000FFF722FF80F00100C6B2ADE76B7A23B1BB
:1008F0002B6831461B68284698476D68002DF5D156
:10090000304600F0D2FC284600F026FAD4F818341D
:100910000BB9009B6360002000F020FAE0E7D4F8F8
:10092000104444B90B4B0C491888000440F00200F5
:1009300000F060F8D4E7236820469B689847646815
:10094000EFE7002680E700BF64010020F4290000E3
:100950007001002010000020502A00002DE9F74F00
:10096000224E04460F46924601A901221846D6F8A7
:1009700008909B46FFF7E6FD20B3019D4FF000086D
:10098000AA1CD84508EB020126D11948002100F025
:10099000E7F980F31000000440EA1440E4006B1C07
:1009A00004F0380403EA090305EA090544F00104E8
:1009B00006EB8303033544EA881444EA8724D860AD
:1009C00046F8254096F820341BB1FFF7B7FE002803
:1009D000FBD103B0BDE8F08F09EA010106EB81010C
:1009E0005AF82830CB6008F10108CAE764010020FA
:1009F0008005002000231A46FFF7B0BF07B501238A
:100A0000019201AAFFF7AAFF03B05DF804FB000002
:100A100030B50E4CD4F8102403460020114629B9F5
:100A2000187242B9C4F810345A6030BD0D7A85424C
:100A300005D04968F3E7516859605360F5E7013024
:100A40000A28EBD14FF0FF30EFE700BF6401002030
:100A500038B5074B0125D3F8104483F8205404B966
:100A600038BD2368657220465B6898476468F6E77E
:100A70006401002030B5C38885B004460D4633B10B
:100A8000144A00921449154A284600F001FA217AC6
:100A900005291DD0637A4BB1A088FFF72FFE104BBC
:100AA000104953F82020284600F0F2F9227A0E4B24
:100AB000A08853F8222003920021FFF703FE039A37
:100AC0000A490346284605B0BDE8304000F0E0B9C9
:100AD00005B030BD982A0000802A0000782A000066
:100AE000042B00009D2A0000282B0000A02A0000F3
:100AF00007B503460846197A052911D05B7A2BB150
:100B0000094A0A49019000F0C3F901980849019087
:100B100000F0BEF9019803B05DF804EB00F0ADB948
:100B2000002AF8D0F2E700BF982A00009D2A0000B2
:100B3000952A00002DE9F04385B01F460C9D002347
:100B400095F80C902B7306460C469046294638467D
:100B5000FFF790FFB8F1060F09D8DFE808F004129C
:100B6000181F283340003146284600F091F9002232
:100B700029463846FFF7BCFF85F80C9005B0BDE864
:100B8000F08322683146284600F082F9EFE7D4E985
:100B900000233146284600F07BF9E8E7A36800937C
:100BA0003146D4E90023284600F072F9DFE7E36814
:100BB0000193A36800933146D4E90023284600F04E
:100BC00067F9D4E723690293E3680193A36800936C
:100BD0003146D4E90023284600F05AF9C7E7636993
:100BE000039323690293E3680193A368009331465A
:100BF000D4E90023284600F04BF9B8E708292DE98D
:100C0000F74F80460E4617461C4639D8002593F804
:100C10000C901D7319461046FFF72CFFDFF880A0DB
:100C2000DFF880B0AE422ED918F80520594620468C
:100C300000F02EF90135082DF4D11849DFF868A02D
:100C4000DFF868B0204600F023F90025AE421FD936
:100C500018F805200192104601F022FE0028019AA2
:100C6000594608BF2E22204600F012F90135082D02
:100C7000ECD1012221463846FFF73AFF84F80C9068
:100C800003B0BDE8F08F5146204600F001F9D1E7EE
:100C90005146204600F0FCF8E8E700BFB42A000007
:100CA000B02A0000AA2A0000B22A0000B62A0000DA
:100CB0001FB50021039001AA44F20100CDE9011102
:100CC00000F004F805B05DF804FB000010B572B642
:100CD000FFF7BEFEFFF732FD0028FBD1104C114993
:100CE0002088000440F00100FFF784FE0E4BD3F88B
:100CF000F030DB0700D500BE20880C49000440F02E
:100D00000200FFF777FEBFF34F8F0749084BCA6811
:100D100002F4E0621343CB60BFF34F8F00BFFDE7E7
:100D2000100000203C2B000000ED00E0482B0000EC
:100D30000400FA0572B6024A136801331360704763
:100D400088050020034A1368013B136003B962B6AB
:100D5000704700BF88050020FFF7ECBFFFF7F2BF28
:100D600010B5034653E8000F0A4643E8002494F008
:100D7000000FF7D110BD10B5034653E8002F42EA2B
:100D8000010043E8000494F0000FF6D110BD10B547
:100D9000034653E8000F00EA010243E8002494F000
:100DA000000FF6D110BD10B5034653E8002F02EB3B
:100DB000010043E8000494F0000FF6D110BD10B517
:100DC000034653E8002FA2EB010043E8000494F02F
:100DD000000FF6D110BD0121FFF7CDBF0021FFF7B5
:100DE000D6BF10B590B1D0E9012301689B1ADBB2E0
:100DF0000A60013BDBB2FF2B026802D100201071B8
:100E000010BD11684C1C14600B70F2E70E20F7E760
:100E100038B504460020FFF79FFF22686368116819
:100E2000994213D9481E106011F8013CE568A18A67
:100E300001FB0355A36811791B1ADBB2994200D25A
:100E400013710020FFF78AFF284638BD0025F8E718
:100E500038B5054600200C46FFF77EFF2A68136868
:100E6000591C1160E968641AA98AB4FBF1F41C707A
:100E7000BDE838400020FFF771BF826810B5044616
:100E80002AB143690168006998470023A36010BD37
:100E90000EB403B5039921B104AB01AA019300F08C
:100EA0006FF802B05DF804EB03B07047826830B4AD
:100EB0000468551C8560A154D0E901329A4202D3DE
:100EC00030BCFFF7DABF30BC704700002DE9F84FA7
:100ED0009846DDE90A43154682460F460A464FF01A
:100EE0000109AA420FD2C14538BFC14613F0010B18
:100EF00001D16CB900240126B8F1010F1BD908F10A
:100F0000FF386E43F8E709F10109B2FBF5F2E8E7B3
:100F10009B070ED5B8F1000F0CBF30262026A14547
:100F2000E9D2013C31465046FFF7C0FF002CF6D114
:100F3000E0E72026F3E7B7FBF6F39D42E1D9DFF8BF
:100F40003C80B7FBF6F3504618F8031006FB137706
:100F5000FFF7ACFF3346AB42B6FBF5F6F1D2BBF17F
:100F6000000F02D00CB1A14501D3BDE8F88F2021BC
:100F70005046013CFFF79AFFF4E700BF552B0000F5
:100F80002DE9F74F054617468846002900F03E81B7
:100F900018F8011B49B92B7B002B00F0378128463C
:100FA00003B0BDE8F04FFFF768BF252940F0B780D8
:100FB000002698F800302D2B424608F1010823D076
:100FC000302B24D02B2B25D000242A2B02F1010119
:100FD00023D13B681A1D1B683A601C440A461378EB
:100FE0002E2B26D101324FF0000A104610F8011BBB
:100FF000A1F1300CBCF1090F1DD80A2303FB0A1321
:10100000A3F1300A0246F0E746F00106D1E746F0C8
:101010000206CEE746F00406CBE711F8013CA3F147
:1010200030000928DBD80A2202FB0434303C0A468F
:10103000CBE74FF0000A12F8011B01F0FB00682813
:101040009046F8D0782909D86F290CD8632962D046
:1010500022D8252963D0582900F0888098F80030DC
:10106000002B95D197E770390829F7D801A353F8D9
:1010700021F000BFE71100005D1000005D100000CE
:101080007D1100005D1000005B1100005D1000008C
:101090005D1000006D110000642901D06929DDD1C7
:1010A0003A68D2F80090111D89EAE9723960A2EB22
:1010B000E9724FF0010B092A35DCD34538BFD3461E
:1010C0002CB1B9F1000F01DB720700D5013CB30769
:1010D00002D5BAF1000F03D0F00701D44CBB0024B5
:1010E000B9F1000F2DDAC9F100092D212846FFF7CB
:1010F000DDFE06F00302022A04D1BAF1000F01D18D
:101100001CBB0024CDE9004653460A224946284626
:10111000FFF7DCFEA2E73B681A1D19783A60284603
:10112000FFF7C4FE9AE70A230BF1010BB2FBF3F2BF
:10113000C1E7A345D4D220212846013CFFF7B6FEE3
:10114000CCE77107D5D52B21D0E7A345DAD23021E2
:101150002846013CFFF7AAFED2E73968CDE90046F0
:101160000A1D3A6053460A220968D0E739680A1D09
:101170003A60CDE9004653461022F5E73B681A1D58
:101180003A6016F00106D3F8009024D1B9F1000FAF
:1011900003D0484601F0E5FB0646B4421DD809F1EC
:1011A000FF3919F8011F00293FF458AF2846FFF70F
:1011B0007DFEF6E728460136FFF778FE19F806109F
:1011C0000029F7D1A642BFF449AF20212846013CAF
:1011D000FFF76CFEF6E70026F0E720212846013CE9
:1011E000FFF764FED9E73B681A1D3A6030212846B4
:1011F0001C68FFF75BFE78212846FFF757FE0022A8
:101200000823CDE900322146102280E703B0BDE873
:10121000F08F00BFFFF7E5BDF8B546790146721EB5
:101220000546002393422D6803D30024A64202D82A
:10123000F8BD0133F6E70F682846FFF709FE0134D1
:101240003946F3E72DE9F843868ACD1C0746FFF7B8
:10125000DFFD043E35440446B5FBF6F5F0B14FF42E
:101260008073EDB28380C680013D076081464FF0F8
:101270000008A84512D23846FFF7CAFD064648B115
:1012800063790133637108F10108C9F80000076050
:101290008146EEE72046FFF7BFFF34462046BDE813
:1012A000F88301210430FFF77EBD10B5012104460B
:1012B0000430FFF784FDC0B220B92046BDE81040DD
:1012C000FFF7AABF10BD2DE9F843B0F8068004333C
:1012D0000546B3FBF8F40F46164608FB14333CB939
:1012E000A8EB0309B14528BFB14626B9BDE8F8838C
:1012F0002D68013CF3E70433E818A6EB09064A46DB
:10130000391901F0D2FAB0454C442D68C1464FF06E
:10131000000328BFB146E8E72DE9F843B0F806809E
:1013200004330546B3FBF8F40F46164608FB1433A6
:101330003CB9A8EB0309B14528BFB14626B9BDE8C1
:10134000F8832D68013CF3E70433E918A6EB09069E
:101350004A46381901F0A9FAB0454C442D68C146F7
:101360004FF0000328BFB146E8E700001FB503783F
:101370008DF800308388ADF8043083688DF806302E
:10138000C3688DF80730036902934369054A0393E4
:10139000054B684653F8213052F82110984705B0A4
:1013A0005DF804FB8C05002094050020024B4FF4EF
:1013B000807043F001031847702B00001F2886BF80
:1013C000054A00F01F004FF0A042012303FA00F08D
:1013D000C2F80805704700BF000300502DE9F04730
:1013E000154690F80080394A42F82850384A42F8A9
:1013F00028304B7B06460C46A3B30868DFF8D8902C
:101400004FF0A04100F5E07340F20C6241F8232058
:10141000636803F5E073002741F82320FFF7CEFF50
:101420006068FFF7CBFF236803F5E07340F20D62BD
:1014300041F82320636803F5E0734FF0010A41F897
:101440002320FFF7B3FF63681F2B8ABF4A464FF084
:10145000A04203F01F03D2F8102522FA03F3DB07A2
:101460000BD507BB002D1B4A434608BF2A46214621
:10147000301DBDE8F04700F079B923681F2B86BF07
:1014800003F01F034A464FF0A0420AFA03F3C2F8E2
:101490000C35FFF78BFF01372068FFF78FFFFFF751
:1014A00085FF092FCFD163681F2B86BF0A4903F040
:1014B0001F034FF0A041012202FA03F3C1F80C35DB
:1014C000FFF774FF6068FFF779FFCBE79405002012
:1014D0008C0500206D130000000300501FB5037839
:1014E0008DF8003043680193037A8DF80830C368A3
:1014F000054A0393054B684653F8213052F82110F2
:10150000984705B05DF804FB9C050020A405002069
:101510001FB503788DF800304368019383688DF818
:101520000830C368054A0393054B684653F82130D9
:1015300052F82110984705B05DF804FB9C05002087
:10154000A4050020F0B5194B90F800C0DFF86CE05E
:1015500043F82C20164B16460A6943F82C204B7F83
:101560000EF80C300C4607460FCC89B06D460FC5FF
:1015700094E80F0085E80F003B78CDF810C01EF806
:1015800003304BB1002E0B4A694608BF3246381D66
:1015900000F00AFE09B0F0BD002E074A694608BFF8
:1015A000324607F10C0000F0D9FBF3E7A405002058
:1015B0009C050020DD14000011150000AC05002082
:1015C000014B1B68184700BFB005002038B50B4B16
:1015D00098420C4601D0002038BD0020FFF7BCFB2C
:1015E000074B1D7915B901221C601A710020FFF705
:1015F000B5FB002DEFD01120EEE700BF002000402A
:10160000B0050020034B984201BF034B00221A6033
:101610001A71704700200040B0050020002343509D
:1016200082B043580193019B02B07047F0B54B4D17
:101630004B4CD5F8243187B0A3B14FF492712846B2
:10164000FFF7ECFFD5F8043163B9A368C5F8083398
:101650000223A360A368C5F8043301232B626B61E6
:1016600007B0F0BDD5F80431002B48D03D4F3B48C2
:101670004FF48271FFF7D2FF0FCF01AE0FC63B6868
:10168000336094F82E307BB1237B012B0CBFD5F84F
:101690003C25D5F84C250292022B304B0CBFD3F8D9
:1016A0003C35D3F84C3503932C484FF4B071FFF719
:1016B000B5FF4FF4AE71FFF7B1FF94F8303013B1BE
:1016C00094F82E303BB1254B0022C3F80022A260D3
:1016D000254AC3F80823214AD2F8C434C2F8C434D6
:1016E0009A0736D501238DF8003094F830300BB9C5
:1016F00084F82F30D4E9003168469847B0E717489E
:101700004FF4A471FFF78AFF237B83B9154F0FCFE6
:1017100001AE0FC63B68336094F83030002BDAD14D
:10172000C5F80032A360104BC5F80833D3E74FF477
:101730000073C5F8003240F20223A36003F1CE73B8
:10174000C5F80833A368C5F804330123AB602B62E6
:1017500086E713F0040318BF0223C4E700300040FB
:10176000B8050020C405002002029C012DE9F84FB5
:1017700006793F4D4FF0340A0AFB06FA05EB0A04DE
:101780009B4694F82D3080460F469146002B6BD136
:1017900038490068FFF71AFF002867D13A687B7B59
:1017A00084F832301F2A8ABF02F01F0313463249E1
:1017B000A06098BF4FF0A04103F5E07340F20C6CBD
:1017C00084F82F0041F823C07B68C4F804B01F2BB5
:1017D0008CBF03F01F01194684F8300001F5E07159
:1017E00088BF254C45F80A9098BF4FF0A04444F8B4
:1017F00021C0D8F80040C4F80825C4F80C35BB68EF
:10180000C4F82435B9F1000F26D044F30733002B78
:101810003A7BB4BF194903F16041C4F307344FEA7E
:101820005313B8BF04F00F074FEA4212A8BF01F5E7
:1018300061414FEA8303D2B203F16043B4BFCA559A
:1018400081F8002303F5614304F01F04012202FA2A
:1018500004F4C3F880411C60342303FB06550123C4
:1018600085F82D30BDE8F88F0820FBE71120F9E757
:10187000B80500202D1600000003005014ED00E014
:10188000036802790621C3F80015044B342101FBDB
:101890000233022283F82D20704700BFB8050020D4
:1018A0002DE9F843CB6803F06043B3F1005F0D46C8
:1018B000904603D010263046BDE8F88390F8049097
:1018C000924F0468924BC4F80833342606FB09761D
:1018D00096F82F3023B1B368C4F804331126EAE731
:1018E00012F0140F0CBF0123002386F82F308E4610
:1018F000BEE80F0006F10C0CACE80F00DEF800307B
:10190000CCF80030C8F3001386F830306B78C4F898
:1019100088354FF482712046FFF780FE4FF49271B4
:10192000FFF77CFE18F0010318BF0123C4F85035FF
:1019300018F0020318BF0123C4F840352B78032B9D
:1019400000F2C280DFE803F084AA68022B6903F08A
:101950006043B3F1005FADD14FF48073C4F800323F
:10196000EA686B68C4F844254FF4A871C4F8483598
:10197000FFF754FE4FF4B071FFF750FE4FF4A4711F
:10198000FFF74CFE01232362A360D4F85031002BF3
:10199000FBD04FF4A8712046FFF740FEAB682A69E0
:1019A000C4F84425C4F848355A4A342303FB097364
:1019B0009A604FF482710823002618F0080F04D1B2
:1019C0002A78032A1CBF0122E250342303FB09F3C7
:1019D000FA18FB58002B7CD1012221440B68002B04
:1019E00000F084803422D4F8C434C4F8C43402FB38
:1019F0000977002287F82F20002B3FF45CAF13F00B
:101A0000020F48F2012608BF032613F0040F48F224
:101A1000022318BF1E464EE76B68EA68C4F84425E7
:101A2000C4F848352B6903F06042B2F1005F7FF4DF
:101A300041AFAA68C4F834354FF48453C4F838254C
:101A4000C4F80032342303FB097340F20222AFE7EB
:101A50006B68EA68C4F8442518F0200FC4F84835CC
:101A60004FF034030ED04FF4807203FB0973C4F8B7
:101A70000022284A9A604FF4A471FFF7CFFD01239A
:101A8000236298E74FF4007203FB0973C4F8002245
:101A900040F202229A604FF48271F0E76B68EA68C4
:101AA000C4F83425C4F838354FF48053C4F80032F4
:101AB000342303FB097340F202229A60012323625C
:101AC0004FF48271002377E74FF4827108230726D1
:101AD00073E718F0040F1CBF4FF4007393603423B6
:101AE00003FB0977BB68C4F80433E4E6D4F8243177
:101AF000002B3FF473AF4FF492712046FFF78EFD39
:101B000022624FF48271626167E700BFB80500206E
:101B100002029C0100020400F0B587B004460F46A3
:101B200015460021142201A81E4600F0E7FE9DF88C
:101B300030308DF80570002B14BF2022002201A93F
:101B4000204602960495FFF7ABFE07B0F0BDF0B556
:101B500087B004460F4615460021142201A81E46F0
:101B600000F0CCFE0123002201A920468DF80430AC
:101B70008DF8057002960495FFF792FE07B0F0BD50
:101B80000023435082B043580193019B02B0704739
:101B90000A4610B54FF48E71FFF7F2FF136A916891
:101BA000C95C136A01331362C0F81C1510BD8B6940
:101BB0000A4610B54FF4847123B9FFF7E1FFD0F85E
:101BC000183510BDFFF7DCFF536AD168D0F818054F
:101BD000C854536A01335362F3E700001FB5012371
:101BE0008DF80030044BCDE90110D3E900126846AE
:101BF000904705B05DF804FBEC05002030B54D4D75
:101C0000D5F804339A0585B051D5D5F82431002B89
:101C10004DD04FF492712846FFF7B2FF4FF4017395
:101C2000C5F80833444B93F829200AB901226A60A9
:101C3000404902228DF80020D1F88024C1F8802488
:101C400003929A690292DA6801920022C3E906229D
:101C50006846D3E9001290473648D0F81C315BB192
:101C6000354A116A536999424DD292F82830002BB7
:101C700049D11146FFF78CFF2E48D0F84431002B94
:101C800055D04FF4A271FFF77BFF2B4B93F829201F
:101C90000AB1012202609A69002A48D0586AD968BC
:101CA00000229A6105B0BDE83040FFF797BFD5F834
:101CB00004335B07D0D5D5F80831002BCCD01E4CAF
:101CC0001C482146FFF773FF636AA2699A42C3D199
:101CD000E369E1684BB1A3612369E3600023606AB3
:101CE000E3616362FFF77AFFB6E794F829300BB936
:101CF00001236B600F4B4FF40172C3F808230023DC
:101D0000606AA361EEE74FF48E710A48FFF738FF6F
:101D100051690029B0D00023029191688DF80030FC
:101D2000019153616846D2E900139847A4E705B0D2
:101D300030BD00BF00200040EC0500201F2886BFFA
:101D400000F01F00044B4FF0A04300F5E0700222AA
:101D500043F82020704700BF000300502DE9F843EE
:101D6000664D90F804802C2303FB0853064693F835
:101D70002A300C469146002B40F0BB806049006839
:101D8000FFF724FC0746002840F0B5802268531C6A
:101D900010D01F2A87BF5B4902F01F0313464FF084
:101DA000A0410120984003F5E073C1F80805032025
:101DB00041F823006168481C0DD01F298BBF01F03A
:101DC0001F030B464F484FF0A04003F5E0734FF060
:101DD000000C40F823C03068A369C0F8243594F89B
:101DE00014C0637DBCF1010F4CEA0303C0F86C35ED
:101DF000C0F81415C0F80C252BD1A368591C0DD0C0
:101E00001F2B8BBF03F01F021A463E494FF0A04123
:101E100002F5E0724FF0000C41F822C0E1684A1C64
:101E200013D01F2987BF374A01F01F0C8C464FF093
:101E3000A0424FF0010E0EFA0CFE0CF5E07CC2F849
:101E400008E54FF0030E42F82CE0C0F80815C0F882
:101E500010352C2202FB08F2AB18C3F8049023695A
:101E6000AB50B9F1000F31D04FF48E71227FFFF7E4
:101E700087FE30684FF4A271FFF782FE3368224973
:101E8000C3F80413190B43F30733002BA8BF03F166
:101E900060404FEA5313BCBF01F00F041B484FEAE8
:101EA0004212A8BF00F561404FEA8303D2B203F1AA
:101EB0006043B4BF025580F8002303F5614301F08D
:101EC0001F0101228A40C3F880211A60336804226E
:101ED000C3F800252C2303FB08530022C3E9062284
:101EE00083F829205A61012283F82A203846BDE868
:101EF000F8830827FAE71127F8E700BFEC05002070
:101F0000FD1B0000000300508000020014ED00E003
:101F10002DE9F04103680579244C0022C3F800251F
:101F20002C2202FB0542014652686AB1204AC3F8DE
:101F3000082343F30732C3F3043652090120B040AB
:101F400020321C4E46F82200D3F80C05D3F8148535
:101F5000D3F80865D3F810754FF0FF329042C3F8FC
:101F60001425C3F80C25C3F80825C3F8102501D0A3
:101F7000FFF7E4FEB8F1FF3F02D04046FFF7DEFE78
:101F80007A1C02D03846FFF7D9FE731C02D03046C7
:101F9000FFF7D4FE0868FFF735FB2C2303FB05444D
:101FA000002384F82A306360BDE8F081EC0500204E
:101FB0008402020000E100E00279044B2C2101FBC5
:101FC00002335869003818BF01207047EC05002023
:101FD0002DE9F84F064689469246FFF7EDFF044685
:101FE00000283DD196F804801F4F2C2508FB057B67
:101FF0004FF48E71CBF82000CBF814A08BF828009A
:10200000CBF808903068FFF7BBFD30680123836090
:102010005946FFF7BDFDDBF804305D4613BB306861
:102020002A6A6B699A4211D33368D3F81C21002ABB
:10203000FBD00122DA6000202C2303FB0877002369
:102040007B61BDE8F88F95F828303BB9D0F81C319A
:10205000002BF8D05946FFF79BFDE1E70F20EBE797
:102060001120EEE72046ECE7EC050020002343506A
:1020700082B043580193019B02B070471FB5012302
:102080008DF80030054B8DF8080001916846D3E9C2
:102090000012904705B05DF804FB00BF1806002051
:1020A0007FB5374AD2F82461002E47D010464FF44E
:1020B0009271FFF7DBFF02238DF80030D2F88034F5
:1020C000C2F880340393D2F83C358DF808302D4B9C
:1020D000DA6801920022C3E906226846D3E90012B9
:1020E00090472748D0F844316BB14FF4A271FFF705
:1020F000BDFF244B9A6932B100229A61D0F83C05A9
:10210000D968FFF7BBFF1E48D0F82031A3B14FF4C8
:102110009071FFF7ABFF1B4B5A696AB1D0F84C15B1
:102120008DF80810002299688DF8002001915A61FD
:102130006846D3E90012904704B070BDD2F8103160
:10214000002BCED04FF488711046FFF78FFF0D4B58
:10215000D2F83C0599698842C3D1DC69D96864B179
:10216000D2F8005225F02005C2F800521A699C618D
:10217000DA60DE61FFF782FFB3E79C61FAE700BF38
:1021800000200040180600201F2886BF00F01F0016
:10219000044B4FF0A04300F5E070022243F82020EA
:1021A000704700BF000300502DE9F8436A4E90F8D5
:1021B0000480242303FB0863054693F820300C4673
:1021C0009146002B40F0C38064490068FFF7FEF998
:1021D0000746002840F0BD8021684B1C10D01F2905
:1021E00087BF5F4A01F01F030B464FF0A04201205A
:1021F000984003F5E073C2F80805032042F8230075
:102200006268501C0DD01F2A8BBF02F01F031346BB
:1022100053484FF0A04003F5E0734FF0000C40F836
:1022200023C02868A369C0F8243594F814C0637DDE
:10223000BCF1010F4CEA0303C0F86C35C0F80C1573
:10224000C0F814252BD1A368591C0DD01F2B8BBFB0
:1022500003F01F021A4642494FF0A04102F5E07216
:102260004FF0000C41F822C0E1684A1C13D01F292E
:1022700087BF3B4A01F01F0C8C464FF0A0424FF045
:10228000010E0EFA0CFE0CF5E07CC2F808E54FF0EA
:10229000030E42F82CE0C0F80815C0F810352422CF
:1022A00002FB08F2B318C3F804902369B350B9F1E4
:1022B000000F3BD04FF48871227FFFF7D7FE2868CC
:1022C0004FF49071FFF7D2FE28684FF49271FFF738
:1022D000CDFE28684FF4A271FFF7C8FE2B68214994
:1022E000C3F80413190B43F30733002BA8BF03F102
:1022F00060404FEA5313BCBF01F00F041A484FEA85
:102300004212A8BF00F561404FEA8303D2B203F145
:102310006043B4BF025580F8002303F5614301F028
:102320001F0101228A40C3F880211A602B6808220D
:10233000C3F80025242303FB08660023C6E90633FF
:102340007361012386F820303846BDE8F8830827FA
:10235000FAE71127F8E700BF18060020A1200000C7
:10236000000300501003020014ED00E02DE9F041DD
:1023700003680579244C0022C3F80025242202FBBF
:102380000542014652686AB1204AC3F8082343F364
:102390000732C3F3043652090120B04020321C4EEC
:1023A00046F82200D3F80C05D3F81485D3F8086555
:1023B000D3F810754FF0FF329042C3F80C25C3F8E4
:1023C0001425C3F80825C3F8102501D0FFF7DCFE5B
:1023D000B8F1FF3F02D04046FFF7D6FE7A1C02D08C
:1023E0003846FFF7D1FE731C02D03046FFF7CCFE13
:1023F0000868FFF707F9242303FB0544002384F84A
:1024000020306360BDE8F081180600201003020050
:1024100000E100E00279044B242101FB02335869FA
:10242000003818BF01207047180600202DE9F84336
:1024300001F06043B3F1005F06468846914634D10F
:10244000FFF7E8FF044690BB32791B4F3068242524
:1024500005FB02754FF49071C5F81490C5F808801B
:10246000FFF704FE30684FF4AC71FFF7FFFD3368EF
:102470006969A868C3F84405C3F848150121996043
:102480006968B1B9D3F82011D3F8580149B90028C7
:10249000F8D00F20242303FB027700237B61BDE8E3
:1024A000F883002818BF0F20F4E71020F7E7112069
:1024B000F5E72046F3E700BF1806002008B50378CB
:1024C0007BB90379012B09D1064B07491888074BC3
:1024D00000041A7840F00300FEF790FA044B012242
:1024E0001A7008BD100000208A2B00003C06002056
:1024F0003D0600201FB50123ADF80C3000230093EA
:102500000F48022303AA4821FFF706FB08B1FEF794
:10251000CFFB0C4C2378002BFCD000238DF80C3023
:10252000237000930648012303AA4821FFF7F4FA19
:1025300008B1FEF7BDFB2378002BFCD004B010BD22
:10254000DC2B00003D0600201FB51B221A23CDE91D
:1025500000234FF0CC710223CDE90213074A08484B
:1025600000236946FEF73AFF08B1FEF7A1FB0548D4
:10257000FFF786F905B05DF804FB00BFBD2400003D
:10258000D82B0000DC2B0000F8B54FF400410020F0
:10259000FEF770F808B1FEF78BFBFDF79DFF184BB7
:1025A00018491888000440F00300FEF723FAFEF7EC
:1025B000C5F80028FBD1FFF7C7FF134C134E144F8B
:1025C000FFF798FF44F001044FF4FA754FF47A4096
:1025D000A047013DFAD120BF3378002BFBD0002368
:1025E00033700C4801233A464821FFF7B0FA08B18E
:1025F000FEF75EFBFEF7A2F80028FBD1E4E700BF80
:1026000010000020AB2B0000D02B00003D06002066
:102610003C060020DC2B00004FF08053D3F8302123
:10262000082A03BFD3F83401B0FA80F04009002033
:102630007047000008B54FF080430022C3F80C211A
:10264000C3F81021C3F838254FF0805203F54043FA
:10265000D2F80414C3F82015D2F80814C3F82415CE
:10266000D2F80C14C3F82815D2F81014C3F82C159E
:10267000D2F81414C3F83015D2F81814C3F834156E
:10268000D2F81C14C3F84015D2F82014C3F844152E
:10269000D2F82414C3F84815D2F82814C3F84C15FE
:1026A000D2F82C14C3F85015D2F83014C3F85415CE
:1026B000D2F83414C3F86015D2F83814C3F864158E
:1026C000D2F83C14C3F86815D2F84014C3F86C155E
:1026D000D2F84424C3F87025FFF79EFF18B13B4B96
:1026E0003B4AC3F88C26FFF797FF18B1394BFB2202
:1026F000C3F81825FFF790FF70B14FF080414FF0FD
:102700008053D1F8E42ED3F8583222F00F0203F0B0
:102710000F031343C1F8E43EFFF77EFF20B12E4BB9
:102720004FF40072C3F840264FF08043D3F80024E2
:10273000D20744BF6FF00102C3F80024274AD2F841
:10274000883043F47003C2F88830BFF34F8FBFF373
:102750006F8F4FF01023D3F80022002A03DBD3F849
:102760000432002B2EDA1E4B0122C3F80425D3F8C5
:102770000024002AFBD04FF010221221C2F80012D0
:10278000D3F80024002AFBD04FF010231222C3F804
:102790000422134BD3F80024002AFBD00022C3F8F4
:1027A0000425D3F80024002AFBD0BFF34F8F0B4938
:1027B0000C4BCA6802F4E0621343CB60BFF34F8F47
:1027C00000BFFDE7084B094A1A6008BD00500040F1
:1027D0004881030000F000400090024000ED00E05E
:1027E00000E001400400FA05380000200090D0030A
:1027F0007F2805D8034B185C034B5B5C184070477F
:1028000000207047F42B0000742C0000A0F161033D
:10281000192B98BF20387047A0F14103192B98BF9E
:10282000203070477F2805D8034B185C034B5B5C56
:102830001840704700207047F42B0000742C0000F3
:10284000A0F16103192B98BF20387047A0F1410314
:10285000192B98BF203070477F299ABF0170012043
:102860006FF02E0070475AB10A787F2A0AD800B15B
:102870000260002119605960501A18BF012070478A
:10288000002070476FF02E007047000008B5034B22
:102890005B689B681B68984708BD00BF3C00002030
:1028A00008B50921FFF7F2FF08BD844640EA01039D
:1028B00013F0030F18D18446202A0BD32DE9F0071B
:1028C000B1E8F807A0E8F807A2F12002202AF7D221
:1028D000BDE8F007042A07D351F8043B40F8043B55
:1028E000A2F10402042AF7D2002A05D011F8013B14
:1028F00000F8013B013AF9D1604670478446002A4E
:102900002DD010F0030F04D000F8011B013A26D09F
:10291000F7E7C9B241EA012141EA0141202A12D375
:10292000A2F120022DE9F0030B460C460D460E469F
:102930000F4688468946A0E8FA03203AFBD2BDE854
:10294000F00320320BD0042A05D340F8041B043ACC
:1029500005D0042AF9D200F8011B013AFBD16046E8
:10296000704700F1010110F0030F11D010F8012B96
:10297000002A23D010F0030F0AD010F8012B002AF0
:102980001CD010F0030F03D010F8012B002A15D033
:102990002DE970004FF001324FF0803350F8044BB6
:1029A000A4EB020525EA04051D4000D1F6E7A0F1DD
:1029B000040070BC10F8012B002AFBD1A0EB010031
:0229C00070475E
:1029C400762B0000000000007A2B000000000000BD
:1029D4007F2B000000000000842B0000000000009A
:1029E400612A000000000303652A000000000003C0
:1029F400940000205C010020640100209C00002061
:082A040014000020180000007E
:102A0C0000000000000000000000000000000000BA
:082A1C000000000000000000B2
:102A2400FFFFFFFFFFFFFFFFFFFFFFFFFFFFFFFFB2
:102A340000000000000000000000D60107010000B3
:102A440041040000A5040000F10300004261636B2F
:102A5400656E647320666C7573686564006170707C
:102A64000062616C6C6F632E6C6F675F6D656D7077
:102A74006F6F6C001B5B313B33316D0025734C6F02
:102A840067732064726F707065642028256429253B
:102A9400730D0A001B5B306D002573003C25733EEB
:102AA4002025733A20002025303278002020200091
:102AB4007C002563001B5B313B33306D001B5B31B5
:102AC4003B33326D001B5B313B33336D001B5B3199
:102AD4003B33346D001B5B313B33356D001B5B3185
:102AE4003B33366D001B5B313B33376D00776172CE
:102AF4006E696E6700696E666F0064656275670073
:102B0400982A0000B92A0000782A0000C12A00008F
:102B1400C92A0000D12A0000D92A0000E12A0000B5
:102B2400E92A000000000000422B0000F12A000006
:102B3400F92A0000FE2A0000466174616C20657267
:102B4400726F720053797374656D20726573657466
:102B54000030313233343536373839414243444515
:102B64004600000000000000000000000338FDD80B
:102B74007047505253005457494D00554152540028
:102B840055415254450054656D7065726174757297
:102B9400653A2025642043656C7369757320646508
:102BA40067726565732E000D0A5457492073656E6C
:102BB400736F72206578616D706C652073746172D7
:102BC4007465642E00000000000000000338FDD886
:102BD40070470000000000000030004000000000CA
:102BE4000100000043000000504F5349580000000A
:102BF4002020202020202020206828282828202069
:102C040020202020202020202020202020202020C0
:102C14004810101010101010101010101010101078
:102C24008484848484848484848410101010101018
:102C34001081818181818101010101010101010171
:102C44000101010101010101010101101010101025
:102C54001082828282828202020202020202020242
:102C640002020202020202020202021010101020EA
:102C740000070320041702010857104080000000D9
:102C8400E82B0000EC2C0000002E000053756E00B1
:102C94004D6F6E0054756500576564005468750087
:102CA4004672690053617400000000004A616E00BE
:102CB400466562004D617200417072004D61790099
:102CC4004A756E004A756C00417567005365700063
:102CD4004F6374004E6F760044656300000000008B
:102CE400414D00504D000000242E0000202E000015
:102CF400202E0000202E0000202E0000202E000098
:102D0400202E0000202E0000202E0000202E000087
:102D1400FFFFFFFFFFFFFFFFFFFFFFFFFFFF0000BD
:102D2400602D0000902C00009C2D0000B02C0000B1
:102D3400E42C0000442D0000F42D0000502D000070
:102D4400256D2F25642F257900000000256120259D
:102D540062202565202554202559000053756E6492
:102D64006179004D6F6E64617900547565736461B7
:102D740079005765646E657364617900546875728F
:102D84007364617900467269646179005361747592
:102D940072646179000000004A616E7561727900A5
:102DA4004665627275617279004D617263680041B3
:102DB4007072696C004D6179004A756E65004A75E0
:102DC4006C79004175677573740053657074656D33
:102DD400626572004F63746F626572004E6F766550
:102DE4006D62657200446563656D62657200000022
:102DF40025483A254D3A255300000000F1270000EC
:102E04000D28000019280000252800004128000092
:102E14004D28000059280000672800000000000029
:022E24002E007E
:102E280000000000002000400000000000200040DA
:102E380000000000442A000000000000000000001C
:102E48000090D003842C0000842C0000842C000007
:082E5800842C0000842C000012
:040000030000025D9A
:00000001FF
